{"abi":[{"type":"function","name":"diamondCut","inputs":[{"name":"_diamondCut","type":"tuple[]","internalType":"struct IDiamondCut.FacetCut[]","components":[{"name":"facetAddress","type":"address","internalType":"address"},{"name":"action","type":"uint8","internalType":"enum IDiamondCut.FacetCutAction"},{"name":"functionSelectors","type":"bytes4[]","internalType":"bytes4[]"}]},{"name":"_init","type":"address","internalType":"address"},{"name":"_calldata","type":"bytes","internalType":"bytes"}],"outputs":[],"stateMutability":"nonpayable"},{"type":"event","name":"DiamondCut","inputs":[{"name":"_diamondCut","type":"tuple[]","indexed":false,"internalType":"struct IDiamondCut.FacetCut[]","components":[{"name":"facetAddress","type":"address","internalType":"address"},{"name":"action","type":"uint8","internalType":"enum IDiamondCut.FacetCutAction"},{"name":"functionSelectors","type":"bytes4[]","internalType":"bytes4[]"}]},{"name":"_init","type":"address","indexed":false,"internalType":"address"},{"name":"_calldata","type":"bytes","indexed":false,"internalType":"bytes"}],"anonymous":false},{"type":"event","name":"DiamondCut","inputs":[{"name":"_diamondCut","type":"tuple[]","indexed":false,"internalType":"struct IDiamondCut.FacetCut[]","components":[{"name":"facetAddress","type":"address","internalType":"address"},{"name":"action","type":"uint8","internalType":"enum IDiamondCut.FacetCutAction"},{"name":"functionSelectors","type":"bytes4[]","internalType":"bytes4[]"}]},{"name":"_init","type":"address","indexed":false,"internalType":"address"},{"name":"_calldata","type":"bytes","indexed":false,"internalType":"bytes"}],"anonymous":false},{"type":"error","name":"EmptyCalldata","inputs":[]},{"type":"error","name":"ImmutableFunction","inputs":[{"name":"selector","type":"bytes4","internalType":"bytes4"}]},{"type":"error","name":"InValidFacetCutAction","inputs":[]},{"type":"error","name":"InitCallFailed","inputs":[]},{"type":"error","name":"MustBeZeroAddress","inputs":[]},{"type":"error","name":"NoCode","inputs":[]},{"type":"error","name":"NoSelectorsInFacet","inputs":[]},{"type":"error","name":"NoZeroAddress","inputs":[]},{"type":"error","name":"NonEmptyCalldata","inputs":[]},{"type":"error","name":"NonExistentSelector","inputs":[{"name":"selector","type":"bytes4","internalType":"bytes4"}]},{"type":"error","name":"NotDiamondOwner","inputs":[]},{"type":"error","name":"SameSelectorReplacement","inputs":[{"name":"selector","type":"bytes4","internalType":"bytes4"}]},{"type":"error","name":"SelectorExists","inputs":[{"name":"selector","type":"bytes4","internalType":"bytes4"}]}],"bytecode":{"object":"0x6080604052348015600f57600080fd5b506110ba8061001f6000396000f3fe608060405234801561001057600080fd5b506004361061002b5760003560e01c80631f931c1c14610030575b600080fd5b61004361003e366004610ba2565b610045565b005b61004d61009e565b61009761005a8587610cef565b8484848080601f0160208091040260200160405190810160405280939291908181526020018383808284376000920191909152506100db92505050565b5050505050565b600080516020611065833981519152600401546001600160a01b031633146100d957604051630305808160e41b815260040160405180910390fd5b565b60005b83518110156102575760008482815181106100fb576100fb610e33565b60200260200101516020015190506000600281111561011c5761011c610e49565b81600281111561012e5761012e610e49565b0361017c5761017785838151811061014857610148610e33565b60200260200101516000015186848151811061016657610166610e33565b6020026020010151604001516102a2565b61024e565b600181600281111561019057610190610e49565b036101d9576101778583815181106101aa576101aa610e33565b6020026020010151600001518684815181106101c8576101c8610e33565b6020026020010151604001516103d9565b60028160028111156101ed576101ed610e49565b036102365761017785838151811061020757610207610e33565b60200260200101516000015186848151811061022557610225610e33565b60200260200101516040015161051b565b60405162c5e5d760e31b815260040160405180910390fd5b506001016100de565b507f8faa70878671ccd212d20771b795c50af8fd3ff6cf27f4bde57e5d4de0aeb67383838360405161028b93929190610eaf565b60405180910390a161029d82826105e1565b505050565b60008151116102c45760405163092d2fe560e41b815260040160405180910390fd5b6000805160206110658339815191526001600160a01b0383166102fa5760405163ddbadd5f60e01b815260040160405180910390fd5b6001600160a01b0383166000908152600182016020526040812054906001600160601b03821690036103305761033082856106ed565b60005b835181101561009757600084828151811061035057610350610e33565b6020908102919091018101516001600160e01b031981166000908152918690526040909120549091506001600160a01b031680156103b25760405163501e70c760e01b81526001600160e01b0319831660048201526024015b60405180910390fd5b6103be8583868a61073e565b836103c881610fd4565b945050600190920191506103339050565b60008151116103fb5760405163092d2fe560e41b815260040160405180910390fd5b6000805160206110658339815191526001600160a01b0383166104315760405163ddbadd5f60e01b815260040160405180910390fd5b6001600160a01b0383166000908152600182016020526040812054906001600160601b03821690036104675761046782856106ed565b60005b835181101561009757600084828151811061048757610487610e33565b6020908102919091018101516001600160e01b031981166000908152918690526040909120549091506001600160a01b0390811690871681036104e957604051631c04188b60e31b81526001600160e01b0319831660048201526024016103a9565b6104f48582846107de565b6105008583868a61073e565b8361050a81610fd4565b9450506001909201915061046a9050565b600081511161053d5760405163092d2fe560e41b815260040160405180910390fd5b6000805160206110658339815191526001600160a01b0383161561057457604051631be65fe560e21b815260040160405180910390fd5b60005b82518110156105db57600083828151811061059457610594610e33565b6020908102919091018101516001600160e01b031981166000908152918590526040909120549091506001600160a01b03166105d18482846107de565b5050600101610577565b50505050565b6001600160a01b0382166106135780511561060f5760405163c21b1ab760e01b815260040160405180910390fd5b5050565b805160000361063557604051633011e86160e21b815260040160405180910390fd5b6001600160a01b038216301461064e5761064e82610b1d565b600080836001600160a01b0316836040516106699190610fff565b600060405180830381855af49150503d80600081146106a4576040519150601f19603f3d011682016040523d82523d6000602084013e6106a9565b606091505b5091509150816105db578051156106d4578060405162461bcd60e51b81526004016103a9919061101b565b604051633a18f8dd60e01b815260040160405180910390fd5b6106f681610b1d565b6002820180546001600160a01b0390921660008181526001948501602090815260408220860185905594840183559182529290200180546001600160a01b0319169091179055565b6001600160e01b0319831660008181526020868152604080832080546001600160601b03909716600160a01b026001600160a01b0397881617815594909516808352600180890183529583208054968701815583528183206008870401805460e09890981c60046007909816979097026101000a96870263ffffffff9097021990971695909517909555529290915281546001600160a01b031916179055565b6001600160a01b03821661081057604051622902d360e91b81526001600160e01b0319821660048201526024016103a9565b306001600160a01b038316036108455760405163069731c560e41b81526001600160e01b0319821660048201526024016103a9565b6001600160e01b03198116600090815260208481526040808320546001600160a01b0386168452600180880190935290832054600160a01b9091046001600160601b0316929161089491611035565b9050808214610986576001600160a01b038416600090815260018601602052604081208054839081106108c9576108c9610e33565b600091825260208083206008830401546001600160a01b038916845260018a019091526040909220805460079092166004026101000a90920460e01b92508291908590811061091a5761091a610e33565b600091825260208083206008830401805463ffffffff60079094166004026101000a938402191660e09590951c929092029390931790556001600160e01b03199290921682528690526040902080546001600160a01b0316600160a01b6001600160601b038516021790555b6001600160a01b038416600090815260018601602052604090208054806109af576109af61104e565b60008281526020808220600860001990940193840401805463ffffffff600460078716026101000a0219169055919092556001600160e01b03198516825286905260408120819055819003610097576002850154600090610a1290600190611035565b6001600160a01b0386166000908152600180890160205260409091200154909150808214610ac1576000876002018381548110610a5157610a51610e33565b6000918252602090912001546002890180546001600160a01b039092169250829184908110610a8257610a82610e33565b600091825260208083209190910180546001600160a01b0319166001600160a01b03948516179055929091168152600189810190925260409020018190555b86600201805480610ad457610ad461104e565b60008281526020808220830160001990810180546001600160a01b03191690559092019092556001600160a01b0388168252600189810190915260408220015550505050505050565b803b8061060f57604051633c11a9c560e21b815260040160405180910390fd5b80356001600160a01b0381168114610b5457600080fd5b919050565b60008083601f840112610b6b57600080fd5b50813567ffffffffffffffff811115610b8357600080fd5b602083019150836020828501011115610b9b57600080fd5b9250929050565b600080600080600060608688031215610bba57600080fd5b853567ffffffffffffffff811115610bd157600080fd5b8601601f81018813610be257600080fd5b803567ffffffffffffffff811115610bf957600080fd5b8860208260051b8401011115610c0e57600080fd5b602091820196509450610c22908701610b3d565b9250604086013567ffffffffffffffff811115610c3e57600080fd5b610c4a88828901610b59565b969995985093965092949392505050565b634e487b7160e01b600052604160045260246000fd5b6040516060810167ffffffffffffffff81118282101715610c9457610c94610c5b565b60405290565b604051601f8201601f1916810167ffffffffffffffff81118282101715610cc357610cc3610c5b565b604052919050565b600067ffffffffffffffff821115610ce557610ce5610c5b565b5060051b60200190565b6000610d02610cfd84610ccb565b610c9a565b8381526020810190600585901b840136811115610d1e57600080fd5b845b81811015610e2857803567ffffffffffffffff811115610d3f57600080fd5b86016060368290031215610d5257600080fd5b610d5a610c71565b610d6382610b3d565b8152602082013560038110610d7757600080fd5b6020820152604082013567ffffffffffffffff811115610d9657600080fd5b919091019036601f830112610daa57600080fd5b8135610db8610cfd82610ccb565b8082825260208201915060208360051b860101925036831115610dda57600080fd5b6020850194505b82851015610e125784356001600160e01b031981168114610e0157600080fd5b825260209485019490910190610de1565b6040840152505085525060209384019301610d20565b509095945050505050565b634e487b7160e01b600052603260045260246000fd5b634e487b7160e01b600052602160045260246000fd5b60005b83811015610e7a578181015183820152602001610e62565b50506000910152565b60008151808452610e9b816020860160208601610e5f565b601f01601f19169290920160200192915050565b6000606082016060835280865180835260808501915060808160051b86010192506020880160005b82811015610f8f57868503607f19018452815180516001600160a01b031686526020810151606087019060038110610f1f57634e487b7160e01b600052602160045260246000fd5b806020890152506040820151915060606040880152808251808352608089019150602084019350600092505b80831015610f775783516001600160e01b03191682526020938401936001939093019290910190610f4b565b50965050506020938401939190910190600101610ed7565b5050506001600160a01b0386166020850152508281036040840152610fb48185610e83565b9695505050505050565b634e487b7160e01b600052601160045260246000fd5b60006001600160601b0382166001600160601b038103610ff657610ff6610fbe565b60010192915050565b60008251611011818460208701610e5f565b9190910192915050565b60208152600061102e6020830184610e83565b9392505050565b8181038181111561104857611048610fbe565b92915050565b634e487b7160e01b600052603160045260246000fdfec8fcad8db84d3cc18b4c41d551ea0ee66dd599cde068d998e57d5e09332c131ca2646970667358221220901b3498ef6cdb2f293edf87f7ec172cb42c73d6a5096e18d7daf420c864f01964736f6c634300081a0033","linkReferences":{}},"methodIdentifiers":{"diamondCut((address,uint8,bytes4[])[],address,bytes)":"1f931c1c"},"id":8}